:020000040000fa
:10000000f0ff0320a5090000d50f0000db0f000062
:10001000e70f0000ed0f0000f30f000000000000ec
:10002000000000000000000000000000630c000061
:10003000e10f000000000000630c0000630c0000f2
:10004000630c0000630c0000630c0000630c0000f4
:10005000630c0000630c0000630c0000630c0000e4
:10006000630c0000630c0000630c0000dd0c00005a
:10007000630c0000630c0000630c0000630c0000c4
:10008000630c0000630c0000630c0000630c0000b4
:10009000630c0000630c0000630c0000630c0000a4
:1000a000630c0000630c0000630c0000190d0000dd
:1000b000630c0000630c0000630c0000b90f00002b
:1000c000630c0000630c0000630c0000630c000074
:1000d000630c0000630c0000630c0000630c000064
:1000e000630c0000630c0000000000000000000032
:1000f00000000000630c0000630c0000630c0000b3
:10010000630c0000630c0000630c0000630c000033
:10011000630c0000630c0000630c0000630c000023
:10012000630c0000630c0000630c0000630c000013
:10013000630c0000630c0000630c0000630c000003
:10014000630c0000630c0000630c0000630c0000f3
:10015000630c0000630c00000000000000000000c1
:10016000000000000000000000000000000000008f
:100170000000000000000000630c0000630c0000a1
:10018000630c0000630c0000630c0000630c0000b3
:1001900000000000630c0000630c0000630c000012
:1001a000630c0000630c0000630c0000630c000093
:1001b000630c0000630c0000630c0000630c000083
:1001c000630c0000630c0000630c0000630c000073
:1001d000630c0000630c0000630c0000630c000063
:1001e000630c0000630c0000630c0000630c000053
:1001f000630c0000630c0000630c0000630c000043
:10020000630c00000000000000000000630c000010
:10021000630c0000630c0000630c0000630c000022
:10022000630c0000630c0000630c0000630c000012
:10023000630c0000630c0000630c0000630c000002
:10024000630c0000630c0000630c0000630c0000f2
:10025000630c0000630c0000630c0000630c0000e2
:020000040000fa
:10026000f8b500bff8bc08bc9e467047c90b00003b
:10027000f8b500bff8bc08bc9e467047a50b00004f
:020000040000fa
:1002800080b487b000afb9607a603b600346fb730f
:100290000023bb750023fb75fb7b4c4a1b011344f9
:1002a0000c331b78002b0ad0494afb7b1b011344fb
:1002b0004e331b78dbb203f00303002b7ed0444a9d
:1002c000fb7b1b0113444e3303221a70fb7b3f4a16
:1002d0001b0113440c3301221a70fb7b1b013d4aa6
:1002e00013443b613b691b889bb203f48063002b82
:1002f00005d0ba683b681a443b695a6002e0ba68a4
:100300003b695a603b691b889bb203f40063002b76
:1003100005d07a683b681a443b699a600ee02c4b22
:100320005b889bb203f44043002b03d17a683b699e
:100330009a6003e07b681a683b699a603b691b8896
:100340009bb21b0adbb203f00303bb75bb7d3a68ab
:1003500022fa03f39ab23b695a801d4afb7b0433ad
:100360001b0113441a681a49fb7b42f00202043352
:100370001b010b441a60164afb7b04331b01134418
:100380001b681b0a03f07f03002b15d1104afb7b6f
:1003900004331b01134406331b78dbb203f0400324
:1003a000402b09d00a4b1b69fa7b012101fa02f2aa
:1003b0001146074a0b4313610123fb75fb7d184669
:1003c0001c37bd465df8047b704700bf000000206d
:0803d00000a00041e002002042
:020000040000fa
:1003d80080b400af3d4b1b78dbb23c4a43f00103cd
:1003e800dbb2137000bf394b5b6803f00103012bcc
:1003f800f9d0364b1b78dbb2344a43f01003dbb23a
:100408001370324b0022da61304b4ff010421a62ff
:100418002e4b4ff400421a632c4b00225a632b4b8d
:100428004ff400421a612a4b10221a72284b1022ec
:100438001a75274b102283f82020254b102283f8a9
:100448002c20234b102283f83820214b102283f8cc
:1004580044201f4b102283f850201d4b102283f894
:100468005c201b4b102283f86820194b102283f85c
:100478007420174b102283f88020154b102283f824
:100488008c20134b102283f89820114b102283f8ec
:10049800a4200f4b102283f8b0200d4b0f2283f8b5
:1004a800bc200a4b1b78dbb2084a43f00203dbb2dc
:1004b800137000bf054b5b6803f00203022bf9d0f1
:1004c80000bfbd465df8047b704700bf00280040b0
:0404d800a00100205f
:020000040000fa
:1004dc00b00200201c00000000000000d002002030
:1004ec0020000000000000000000002010000000b0
:1004fc0000000000a0010020c0000000000000006f
:10050c00f00200200c00000000000000000300209e
:10051c0001000000000000000103002001000000a9
:10052c0001000000010000001000002090010000fc
:10053c0000000000cc0200200400000000000000bd
:10054c00600200205000000000000000fc020020af
:10055c00040000000000000000000000000000008b
:04056c0066666666f3
:020000040000fa
:1005cc0098b500af002000f0bbfb00221f490020b3
:1005dc0000f042fb00211e4800f052fc4ff400706a
:1005ec0000f022fc002000f009fc00f0c3fb194bca
:1005fc004ff48042da61184b00221a70174b00221c
:10060c001a70174a174b14460fcb07c423800234b9
:10061c001b0c2370124800f0b3fc0346124a10491d
:10062c000020fff727fe00bf0b4b1b78dbb283f0db
:10063c000103dbb2002bf7d1084b1b78dbb283f044
:10064c000103dbb2002befd1d1e700bfb50e0000e8
:10065c00610e000000800041000300200103002017
:0c066c00100000207c0f00002804004358
:020000040000fa
:1006780080b483b000af214b7b6000233b60002334
:100688003b6011e07b6800221a707b6800225a6088
:100698007b6800229a607b6800221a737b6810339b
:1006a8007b603b6801333b603b68002bead0144b0e
:1006b800144a5a63124b144a9a63114b4ff0813211
:1006c8005a610f4b114a1a640e4b40f209421a80c4
:1006d8000b4b002283f84520084b01221a70084b67
:1006e800032283f84d20064b40f602721a8000bfa1
:1006f8000c37bd465df8047b704700bf0000002042
:1007080000a00041e0020020d0020020000f2000dd
:020000040000fa
:1007180080b586b000af0346fb7100233b61002320
:10072800fb600223fb75fb791b011e4a13443b61e6
:100738001d4afb791b0113444e331b78dbb2fb6067
:10074800fb6803f00203002b0bd0174afb791b014f
:1007580013444e3302221a700123fb753b690022b1
:100768001a73fb6803f00103002b0bd00e4afb79c8
:100778001b0113444e3301221a700223fb753b6997
:1007880000221a733b695b68002b06d03b695b68e3
:100798003a699168fa7d1046984700bf1837bd46f8
:0c07a80080bd00bf0000002000a0004148
:020000040000fa
:1007b40080b500af00f0f0fb00f0befb00f0f3fbef
:1007c40000f00afb00f02ef800f084f900f0eefad5
:1007d400124b4122c3f8902000bf104bd3f8903045
:1007e40003f04003402bf8d10c4b4122c3f80c21f9
:1007f40000bf0a4bd3f80c3103f04003402bf8d16f
:10080400074b6ff07f421a61054b40f2ff725a6149
:10081400034b02221a6200bf80bd00bf001c0040cf
:040824000008004088
:020000040000fa
:1008280080b400af174b4222c3f8842000bf154b99
:10083800d3f8843003f04003402bf8d1124b002248
:100848009a63114b77225a6300bf0f4bdb6b03f09f
:100858000403042bf9d00c4b022283f8302000bf8c
:10086800094bdb6b03f00203022bf9d000bf064be8
:100878001b6c03f00303032bf9d100bfbd465df8e1
:0c088800047b7047001c00400010004082
:020000040000fa
:1008940080b400af154b01221a8000bf134b1b69b3
:1008a40003f00103012bf9d0104b48f280121a8097
:1008b4000e4b4ff400721a6200bf0c4b1b6903f01d
:1008c4002003202bf9d0094b00225a6200bf074baa
:1008d4001b6903f04003402bf9d0044b4ff48072a2
:1008e4005a8100bfbd465df8047b70470024004078
:020000040000fa
:1008f4000e4a38b5002313600d4a0e4c13600e4a9d
:100904000e4d13600e4a13600e4a13600e4a536272
:1009140013610123936000f02efb00f02cfbac422a
:1009240000d338bd54f8043b9847f8e7fc02002094
:100934006c0200206c0200006802002070020000bb
:0c0944006002002064020020700200200d
:020000040000fa
:1009500080b483b000af03463960fb80b7f906303e
:10096000002b0adb3b68dab20c49b7f906305201ba
:10097000d2b20b4483f800230ae03b68dab208499c
:10098000fb8803f00f03043b5201d2b20b441a76ea
:1009900000bf0c37bd465df8047b704700e100e006
:0409a00000ed00e086
:020000040000fa
:1009a40008b50d4b98470d4b984700f0d7f8022037
:1009b40000f092fa00f044f8094b23f07f03094a4f
:1009c4009360094b984700f00bf9084b9847084b84
:1009d4009847fff7f9fdfee71f0f00001f0f000007
:1009e4000000000000ed00e0f50800001f0f00000b
:0409f4001f0f0000d1
:020000040000fa
:1009f80080b400af0f4b104a1a600e4b4ff622021c
:100a08009a810c4b4ff480325a6000bf094bdb6966
:100a1800002bfbd1074b1b68064a43f00203136007
:100a280000bf044bdb69002bfbd100bfbd465df85e
:0c0a3800047b70470004004304011040e0
:020000040000fa
:100a440070b50e4b0e4a0021934208d30d480e4d4b
:100a54004ff6ff76016829b943681bb970bd03f8e6
:100a6400011bf1e783684268334000f10c0455f838
:100a740023302046984704eb8000ebe70000002079
:0c0a840010000020dc040000540f0000f3
:020000040000fa
:100a900080b485b000af78607b6803f00703fb602b
:100aa0000c4bdb68bb60ba684ff6ff031340bb60ba
:100ab000fb681a02bb68134343f0bf6343f400337f
:100ac000bb60044abb68d36000bf1437bd465df805
:080ad000047b704700ed00e01b
:020000040000fa
:100ad80080b400af0c4b01225a7100bf0a4bdb787f
:100ae800dbb203f00103012bf8d1084b084a1a6264
:100af80000bf064b5b6803f00403042bf9d000bf6a
:100b0800bd465df8047b704700080040001c0040ab
:040b180007010100d0
:020000040000fa
:100b1c0080b400af0e4b4ff480421a600c4b4ff474
:100b2c0040421a610a4b002283f84e20084b0522e2
:100b3c0083f84f20064b012283f8d020044b02226d
:100b4c0083f8b82000bfbd465df8047b704700bf3a
:040b5c0000800041d4
:020000040000fa
:100b600080b483b000afeff310833b603b687b60e1
:100b700072b60b4bd3f88830094a43f47003c2f8bd
:100b80008830bff34f8fbff36f8f7b68002b00d18e
:100b900062b600bf0c37bd465df8047b704700bfee
:040ba00000ed00e084
:020000040000fa
:100ba40010b5054c227832b9044b13b10448aff3a5
:100bb40000800123237010bdb0020020000000005b
:100bc4000000000008b5034b1bb103490348aff311
:100bd400008008bd00000000b402002000000000f6
:020000040000fa
:100be40080b400af0d4b9b680c4a23f00103936063
:100bf40000bf0a4bdb6803f00103012bf9d0074b5c
:100c04005b68064a43f004035360044b01229a6074
:100c140000bfbd465df8047b704700bf0060004123
:020000040000fa
:100c240080b500af0020fff731ffbff35f8f62b6de
:100c340007210b20fff78afe0b2000f02ff8072175
:100c44001b20fff783fe1b2000f028f807211f203c
:0e0c5400fff77cfe1f2000f021f800bf80bdde
:020000040000fa
:020c6200fee7ab
:020000040000fa
:100c640080b485b000af0346b9607a60fb73fb7b48
:100c7400094a1b0113440433ba681a60fb7b064a11
:100c84001b01134408337a681a6000bf1437bd4649
:0c0c94005df8047b704700bf00000020ea
:020000040000fa
:100ca00080b483b000af0346fb80b7f90630002b59
:100cb0000bdbfb8803f01f020749b7f906305b091d
:100cc000012000fa02f241f8232000bf0c37bd4694
:0c0cd0005df8047b704700bf00e100e00d
:020000040000fa
:100cdc0080b500af0b4b9b899bb21a460a4b5a60ee
:100cec00084b4cf2ff329a81074b1b68002b07d044
:100cfc00054b1b68044a5068034a92681146984792
:0c0d0c0000bf80bd00240040f002002069
:020000040000fa
:100d180080b500af094b4ff400425a61084bd3f835
:100d2800b430002b07d0064bd3f8b430044ad2f8bd
:100d3800b8201046984700bf80bd00bf002800407b
:040d4800a0010020e6
:020000040000fa
:100d4c0080b582b000af786000f0e4f8fff7e0fe09
:100d5c00fff72afd00f031f9fff788fcfff746fe9c
:100d6c00fff734fbfff790fdfff756ff00bf083786
:040d7c00bd4680bd33
:020000040000fa
:100d800080b400af094b1b889bb2084a43f00203b2
:100d90009bb2138000bf054b1b6903f00203022bbb
:100da000f9d000bfbd465df8047b704700240040c9
:020000040000fa
:100db00080b400af074b084a5a6200bf054b5b681e
:100dc00003f00803082bf9d000bfbd465df8047b93
:0c0dd000704700bf001c0040070102003b
:020000040000fa
:100ddc0080b400af074b084a9a6200bf054b5b68b2
:100dec0003f01003102bf9d000bfbd465df8047b57
:0c0dfc00704700bf001c004006013000e2
:020000040000fa
:100e080080b483b000af7860074a7b68936100bf05
:100e1800054b1b6903f00803082bf9d000bf0c37fa
:0c0e2800bd465df8047b704700240040cc
:020000040000fa
:100e340080b483b000af7860074a7b68136200bf58
:100e4400054b1b6903f02003202bf9d000bf0c379e
:0c0e5400bd465df8047b704700240040a0
:020000040000fa
:100e600080b483b000af786039607b6803f480732e
:100e7000002b02d0044b01221a7000bf0c37bd4674
:0c0e80005df8047b704700bf00030020f9
:020000040000fa
:100e8c0080b483b000af78603960064a7b68136029
:100e9c00044a3b68936000bf0c37bd465df8047b89
:080eac00704700bff0020020b6
:020000040000fa
:100eb40080b483b000af03463960fb71fb79012b2a
:100ec40002d1044b01221a7000bf0c37bd465df8f5
:080ed400047b704701030020bc
:020000040000fa
:100edc0080b483b000af78607b681b01044a03f0d8
:100eec007003536000bf0c37bd465df8047b704740
:040efc000060004151
:020000040000fa
:100f000010b50023934206d113f0030018bf01204f
:0e0f100000eb930010bdc45ccc540133f2e73b
:020000040000fa
:020f1e0070471a
:020000040000fa
:100f200080b400af044b40f204521a8000bfbd46ab
:0c0f30005df8047b704700bf00400041ea
:020000040000fa
:100f3c0080b400af034b00221a7400bfbd465df8ad
:080f4c00047b70470014004013
:020000040000fa
:100f5400690f0000010f0000f90f0000f90f0000f5
:040f6400f90f000081
:020000040000fa
:100f68000a440023914201d10020704701f8013b57
:020f7800f8e798
:020000040000fa
:020f7a007047be
:020000040000fa
:100f7c0048656c6c6f20576f726c64210d0a000011
:020000040000fa
:100f8c0003461a46013311780029fad1101a70471a
:020000040000fa
:0e0f9c0080b400af00bfbd465df8047b704717
:020000040000fa
:0e0faa0080b400af00bfbd465df8047b704709
:020000040000fa
:0e0fb80080b500af0020fff7abfb00bf80bd8f
:020000040000fa
:0e0fc60080b400af00bfbd465df8047b7047ed
:020000040000fa
:060fd40080b400affee74f
:020000040000fa
:060fda0080b400affee749
:020000040000fa
:060fe00080b400affee743
:020000040000fa
:060fe60080b400affee73d
:020000040000fa
:060fec0080b400affee737
:020000040000fa
:060ff20080b400affee731
:020000040000fa
:040ff800002070471e
:020000040000fa
:0200000400807a
:044000003912003c35
:020000040000fa
:0200000400807a
:044004008000a82a66
:020000040000fa
:0200000400807a
:04400800ffffffffb8
:00000001FF
